:100000000C9431000C94D8010C944E000C944E00CA
:100010000C944E000C944E000C944E000C944E0028
:100020000C944E000C944E000C944E000C944E0018
:100030000C944E000C944E000C944E000C944E0008
:100040000C944E000C944E000C944E000C944E00F8
:100050000C944E00F803FC030004040408040C0490
:10006000100411241FBECFE5D8E0DEBFCDBF10E0E5
:10007000A0E6B0E0E2EAF8E002C005900D92A436F6
:10008000B107D9F720E0A4E6B0E001C01D92A73681
:10009000B207E1F70E94D3010C944F040C940000C6
:1000A000789461E080E00E94360380E00E946A0359
:1000B00080E00E94150482E00E94150462E081E461
:1000C0000E945C0161E081E40E945C0160E081E4E7
:1000D0000E945C0162E082E40E945C0161E082E4D3
:1000E0000E945C0160E082E40E945C0160E083E4C5
:1000F0000E945C0162E084E40E9458011092660054
:1001000008950F93CF93809166008230B9F128F45F
:10011000882351F08130C9F093C0833009F43FC087
:10012000843009F45DC08CC062E082E40E9460010A
:1001300060E081E40E94600161E082E40E94640169
:1001400061E081E40E9464017BC062E082E40E947D
:10015000640160E081E40E94640160E082E40E9446
:10016000640162E081E40E94640161E082E40E9433
:10017000600161E081E40E94600162C061E082E4AC
:100180000E94640161E081E40E94640160E082E415
:100190000E94600162E081E40E94600151C080E041
:1001A0000E94150482E0809366000E94810002E0B4
:1001B0002DE430E045E050E060E380E00E941E0462
:1001C00081E0809366000E94810060E082E40E94EA
:1001D000600180E690E00E946B0188E081BDFFCF66
:1001E00080E00E94150482E00E941504C1E0C093E3
:1001F00066000E94810062E081E40E94600180E666
:1002000090E00E946B0182E0809366000E94810072
:1002100002E02DE430E045E050E060E380E00E9441
:100220001E04C09366000E94810060E082E40E9488
:10023000600180E690E00E946B0188E081BDFFCF05
:10024000CF910F9108950F93109266000E94810044
:1002500002E02DE430E045E050E060E380E00E9401
:100260001E04809166008F5F809366000E9481006B
:1002700080E690E00E946B01809166008F5F809322
:1002800066000E9481002DE430E045E050E060E32C
:1002900080E00E941E048091660081508093660079
:1002A0000E94810080E690E00E946B010F9108950A
:1002B00040E00E940B02089541E00E940B02089565
:1002C00041E00E948502089540E00E948502089561
:1002D0000E94FF0208951F93CF93DF93EC0113BE9A
:1002E00015BC109265001092640040E050E060E39D
:1002F00080E00E947C034AC0FE01E10FF11D608195
:10030000683128F0677084E40E94680112C060318F
:1003100028F0677083E40E9468010BC0683028F001
:10032000677082E40E94680104C0677081E40E94E3
:1003300068011F5F01C010E01230F0F244E050E0AD
:1003400060E382E00E947C030DC08CE084BD08B6AF
:1003500006FEFDCF88B7806488BF809164008F5F00
:100360008093640080916400803178F382E00E9481
:1003700015041092640008B600FEFDCF88B78160B6
:1003800088BF809165008F5F8093650080916500D4
:100390008A3088F280E00E94150410926500DF9197
:1003A000CF911F9108950E9450000E942301FDCF1C
:1003B0001F920F920FB60F9211242F933F934F93DA
:1003C0005F936F937F938F939F93AF93BF93EF93BD
:1003D000FF9380916600813041F0823059F483E0D0
:1003E000809366000E94810005C084E080936600CF
:1003F0000E948100FF91EF91BF91AF919F918F91EA
:100400007F916F915F914F913F912F910F900FBE10
:100410000F901F901895823431F118F4813439F01F
:1004200008958334E1F1843409F454C008954111EE
:100430000CC02AB381E090E002C0880F991F6A9532
:10044000E2F7809582238ABB0895413009F05CC0B1
:100450002AB381E090E002C0880F991F6A95E2F705
:10046000822B8ABB089541110CC027B381E090E034
:1004700002C0880F991F6A95E2F78095822387BB97
:100480000895413009F040C027B381E090E002C0F8
:10049000880F991F6A95E2F7822B87BB0895411157
:1004A0000CC024B381E090E002C0880F991F6A95C8
:1004B000E2F78095822384BB0895413029F524B367
:1004C00081E090E002C0880F991F6A95E2F7822BC5
:1004D00084BB089541110CC021B381E090E002C0BB
:1004E000880F991F6A95E2F78095822381BB089552
:1004F000413051F421B381E090E002C0880F991F90
:100500006A95E2F7822B81BB0895823431F118F4A9
:10051000813439F008958334E1F1843409F454C00E
:10052000089541110CC02BB381E090E002C0880F08
:10053000991F6A95E2F7809582238BBB089541301D
:1005400009F05CC02BB381E090E002C0880F991FD6
:100550006A95E2F7822B8BBB089541110CC028B33A
:1005600081E090E002C0880F991F6A95E2F78095BC
:10057000822388BB0895413009F040C028B381E050
:1005800090E002C0880F991F6A95E2F7822B88BB22
:10059000089541110CC025B381E090E002C0880F9E
:1005A000991F6A95E2F78095822385BB08954130B3
:1005B00029F525B381E090E002C0880F991F6A9564
:1005C000E2F7822B85BB089541110CC022B381E074
:1005D00090E002C0880F991F6A95E2F78095822308
:1005E00082BB0895413051F422B381E090E002C013
:1005F000880F991F6A95E2F7822B82BB0895823497
:10060000A1F018F4813431F008958334C9F08434B2
:1006100011F108952BB381E090E002C0880F991F7B
:100620006A95E2F782278BBB089528B381E090E0BA
:1006300002C0880F991F6A95E2F7822788BB089548
:1006400025B381E090E002C0880F991F6A95E2F718
:10065000822785BB089522B381E090E002C0880F15
:10066000991F6A95E2F7822782BB0895882319F0C3
:100670008130C1F00895613051F028F0623059F0B6
:10068000633069F00FC085B7826085BF0BC085B746
:10069000836085BF07C085B7816085BF03C085B70C
:1006A0008C7F85BF613051F028F0623059F06330A3
:1006B00069F0089585B7886085BF089585B78C6017
:1006C00085BF089585B7846085BF089585B7837F0A
:1006D00085BF0895813041F018F0823049F00895C7
:1006E0008BB780648BBF08958BB780688BBF0895EC
:1006F0008BB780628BBF0895882321F0823009F484
:100700004CC00895613069F028F0623089F06330A0
:10071000B1F01BC083B78F7B83BF83B7877F83BF55
:1007200014C083B7806483BF83B7877F83BF0DC046
:1007300083B78F7B83BF83B7886083BF06C083B7CF
:10074000806483BF83B7886083BF43305105B9F0AD
:1007500038F44115510559F04130510561F01BC085
:100760004530510581F04630510589F014C083B7FA
:10077000816083BF089583B7826083BF089583B784
:10078000836083BF089583B7846083BF089583B770
:10079000856083BF089513BE0895613069F028F025
:1007A000623089F06330B1F01BC085B58F7B85BDA9
:1007B00085B5877F85BD14C085B5806485BD85B549
:1007C000877F85BD0DC085B58F7B85BD85B588606C
:1007D00085BD06C085B5806485BD85B5886085BD4D
:1007E0004730510500F5FA01E65DFF4F0C944904CE
:1007F00085B5816085BD089585B5826085BD089504
:1008000085B5836085BD089585B5846085BD0895EF
:1008100085B5856085BD089585B5866085BD0895DB
:1008200085B5876085BD15BC0895882319F0823091
:1008300019F0089513BE089515BC08950F931F93E2
:10084000CF93DF93182FE901109265001092640096
:100850000E947C030CC002BF08B600FEFDCF88B723
:10086000816088BF809165008F5F80936500809173
:10087000650090E08C179D0770F3812F0E9415048E
:100880001092650010926400DF91CF911F910F913B
:100890000895EE0FFF1F0590F491E02D0994F89450
:0208A000FFCF88
:0408A2000109100038
:00000001FF
